{
  "contractName": "Marketplace",
  "abi": [
    {
      "inputs": [],
      "payable": false,
      "stateMutability": "nonpayable",
      "type": "constructor"
    },
    {
      "anonymous": false,
      "inputs": [
        {
          "indexed": false,
          "internalType": "uint256",
          "name": "id",
          "type": "uint256"
        },
        {
          "indexed": false,
          "internalType": "string",
          "name": "name",
          "type": "string"
        },
        {
          "indexed": false,
          "internalType": "uint256",
          "name": "price",
          "type": "uint256"
        },
        {
          "indexed": false,
          "internalType": "address payable",
          "name": "owner",
          "type": "address"
        },
        {
          "indexed": false,
          "internalType": "bool",
          "name": "forSale",
          "type": "bool"
        }
      ],
      "name": "ProductCreated",
      "type": "event"
    },
    {
      "anonymous": false,
      "inputs": [
        {
          "indexed": false,
          "internalType": "uint256",
          "name": "id",
          "type": "uint256"
        },
        {
          "indexed": false,
          "internalType": "string",
          "name": "name",
          "type": "string"
        },
        {
          "indexed": false,
          "internalType": "uint256",
          "name": "price",
          "type": "uint256"
        },
        {
          "indexed": false,
          "internalType": "address payable",
          "name": "owner",
          "type": "address"
        },
        {
          "indexed": false,
          "internalType": "bool",
          "name": "forSale",
          "type": "bool"
        }
      ],
      "name": "ProductPurchased",
      "type": "event"
    },
    {
      "anonymous": false,
      "inputs": [
        {
          "indexed": false,
          "internalType": "uint256",
          "name": "id",
          "type": "uint256"
        },
        {
          "indexed": false,
          "internalType": "string",
          "name": "name",
          "type": "string"
        },
        {
          "indexed": false,
          "internalType": "uint256",
          "name": "price",
          "type": "uint256"
        },
        {
          "indexed": false,
          "internalType": "address payable",
          "name": "owner",
          "type": "address"
        },
        {
          "indexed": false,
          "internalType": "bool",
          "name": "forSale",
          "type": "bool"
        }
      ],
      "name": "ProductUpdated",
      "type": "event"
    },
    {
      "constant": true,
      "inputs": [],
      "name": "name",
      "outputs": [
        {
          "internalType": "string",
          "name": "",
          "type": "string"
        }
      ],
      "payable": false,
      "stateMutability": "view",
      "type": "function"
    },
    {
      "constant": true,
      "inputs": [],
      "name": "productCount",
      "outputs": [
        {
          "internalType": "uint256",
          "name": "",
          "type": "uint256"
        }
      ],
      "payable": false,
      "stateMutability": "view",
      "type": "function"
    },
    {
      "constant": true,
      "inputs": [
        {
          "internalType": "uint256",
          "name": "",
          "type": "uint256"
        }
      ],
      "name": "products",
      "outputs": [
        {
          "internalType": "uint256",
          "name": "id",
          "type": "uint256"
        },
        {
          "internalType": "string",
          "name": "name",
          "type": "string"
        },
        {
          "internalType": "uint256",
          "name": "price",
          "type": "uint256"
        },
        {
          "internalType": "address payable",
          "name": "owner",
          "type": "address"
        },
        {
          "internalType": "bool",
          "name": "forSale",
          "type": "bool"
        }
      ],
      "payable": false,
      "stateMutability": "view",
      "type": "function"
    },
    {
      "constant": false,
      "inputs": [
        {
          "internalType": "string",
          "name": "_name",
          "type": "string"
        },
        {
          "internalType": "uint256",
          "name": "_price",
          "type": "uint256"
        }
      ],
      "name": "createProduct",
      "outputs": [],
      "payable": false,
      "stateMutability": "nonpayable",
      "type": "function"
    },
    {
      "constant": false,
      "inputs": [
        {
          "internalType": "uint256",
          "name": "_id",
          "type": "uint256"
        },
        {
          "internalType": "uint256",
          "name": "_price",
          "type": "uint256"
        }
      ],
      "name": "changePrice",
      "outputs": [],
      "payable": false,
      "stateMutability": "nonpayable",
      "type": "function"
    },
    {
      "constant": false,
      "inputs": [
        {
          "internalType": "uint256",
          "name": "_id",
          "type": "uint256"
        },
        {
          "internalType": "bool",
          "name": "forSale",
          "type": "bool"
        }
      ],
      "name": "changeForSalestate",
      "outputs": [],
      "payable": false,
      "stateMutability": "nonpayable",
      "type": "function"
    },
    {
      "constant": false,
      "inputs": [
        {
          "internalType": "uint256",
          "name": "_id",
          "type": "uint256"
        }
      ],
      "name": "purchaseProduct",
      "outputs": [],
      "payable": true,
      "stateMutability": "payable",
      "type": "function"
    }
  ],
  "bytecode": "0x60806040526000600155731606ce047b38d5b3d714db5728e7827b9e0d5af4600360006101000a81548173ffffffffffffffffffffffffffffffffffffffff021916908373ffffffffffffffffffffffffffffffffffffffff1602179055503480156200006b57600080fd5b506040518060400160405280601b81526020017f4461707020556e6976657273697479204d61726b6574706c616365000000000081525060009080519060200190620000b9929190620000c0565b506200016f565b828054600181600116156101000203166002900490600052602060002090601f016020900481019282601f106200010357805160ff191683800117855562000134565b8280016001018555821562000134579182015b828111156200013357825182559160200191906001019062000116565b5b50905062000143919062000147565b5090565b6200016c91905b80821115620001685760008160009055506001016200014e565b5090565b90565b6117f2806200017f6000396000f3fe6080604052600436106100705760003560e01c8063957574be1161004e578063957574be14610233578063b3de019c1461027a578063e0f6ef87146102bf578063e9300c6c146102ea57610070565b806306fdde031461007557806338e76a03146101055780637acc0b2014610133575b600080fd5b34801561008157600080fd5b5061008a6103bc565b6040518080602001828103825283818151815260200191508051906020019080838360005b838110156100ca5780820151818401526020810190506100af565b50505050905090810190601f1680156100f75780820380516001836020036101000a031916815260200191505b509250505060405180910390f35b6101316004803603602081101561011b57600080fd5b810190808035906020019092919050505061045a565b005b34801561013f57600080fd5b5061016c6004803603602081101561015657600080fd5b8101908080359060200190929190505050610aa0565b60405180868152602001806020018581526020018473ffffffffffffffffffffffffffffffffffffffff1673ffffffffffffffffffffffffffffffffffffffff16815260200183151515158152602001828103825286818151815260200191508051906020019080838360005b838110156101f45780820151818401526020810190506101d9565b50505050905090810190601f1680156102215780820380516001836020036101000a031916815260200191505b50965050505050505060405180910390f35b34801561023f57600080fd5b506102786004803603604081101561025657600080fd5b8101908080359060200190929190803515159060200190929190505050610b9b565b005b34801561028657600080fd5b506102bd6004803603604081101561029d57600080fd5b810190808035906020019092919080359060200190929190505050610f89565b005b3480156102cb57600080fd5b506102d46113e7565b6040518082815260200191505060405180910390f35b3480156102f657600080fd5b506103ba6004803603604081101561030d57600080fd5b810190808035906020019064010000000081111561032a57600080fd5b82018360208201111561033c57600080fd5b8035906020019184600183028401116401000000008311171561035e57600080fd5b91908080601f016020809104026020016040519081016040528093929190818152602001838380828437600081840152601f19601f820116905080830192505050505050509192919290803590602001909291905050506113ed565b005b60008054600181600116156101000203166002900480601f0160208091040260200160405190810160405280929190818152602001828054600181600116156101000203166002900480156104525780601f1061042757610100808354040283529160200191610452565b820191906000526020600020905b81548152906001019060200180831161043557829003601f168201915b505050505081565b6104626116d1565b600260008381526020019081526020016000206040518060a001604052908160008201548152602001600182018054600181600116156101000203166002900480601f0160208091040260200160405190810160405280929190818152602001828054600181600116156101000203166002900480156105235780601f106104f857610100808354040283529160200191610523565b820191906000526020600020905b81548152906001019060200180831161050657829003601f168201915b50505050508152602001600282015481526020016003820160009054906101000a900473ffffffffffffffffffffffffffffffffffffffff1673ffffffffffffffffffffffffffffffffffffffff1673ffffffffffffffffffffffffffffffffffffffff1681526020016003820160149054906101000a900460ff1615151515815250509050600081606001519050600082600001511180156105cc5750600154826000015111155b61063e576040517f08c379a000000000000000000000000000000000000000000000000000000000815260040180806020018281038252600e8152602001807f456e7465722076616c696420696400000000000000000000000000000000000081525060200191505060405180910390fd5b81604001513410156106b8576040517f08c379a000000000000000000000000000000000000000000000000000000000815260040180806020018281038252601b8152602001807f5472616e736665722074686520636f727265637420616d6f756e74000000000081525060200191505060405180910390fd5b816080015161072f576040517f08c379a00000000000000000000000000000000000000000000000000000000081526004018080602001828103825260148152602001807f50726f64756374206e6f7420666f722073616c6500000000000000000000000081525060200191505060405180910390fd5b8073ffffffffffffffffffffffffffffffffffffffff163373ffffffffffffffffffffffffffffffffffffffff1614156107d1576040517f08c379a00000000000000000000000000000000000000000000000000000000081526004018080602001828103825260168152602001807f42757965722063616e6e6f742062652073656c6c65720000000000000000000081525060200191505060405180910390fd5b33826060019073ffffffffffffffffffffffffffffffffffffffff16908173ffffffffffffffffffffffffffffffffffffffff16815250508160026000858152602001908152602001600020600082015181600001556020820151816001019080519060200190610843929190611718565b506040820151816002015560608201518160030160006101000a81548173ffffffffffffffffffffffffffffffffffffffff021916908373ffffffffffffffffffffffffffffffffffffffff16021790555060808201518160030160146101000a81548160ff021916908315150217905550905050600360009054906101000a900473ffffffffffffffffffffffffffffffffffffffff1673ffffffffffffffffffffffffffffffffffffffff166108fc6064600534028161090157fe5b049081150290604051600060405180830381858888f1935050505015801561092d573d6000803e3d6000fd5b508073ffffffffffffffffffffffffffffffffffffffff166108fc6064605f34028161095557fe5b049081150290604051600060405180830381858888f19350505050158015610981573d6000803e3d6000fd5b507f79558d0d7d4d900e2f15c4cc0a665f1acdbe415e44de900ecdd1e5bf12b56f4e60015483602001518460400151336002600089815260200190815260200160002060030160149054906101000a900460ff1660405180868152602001806020018581526020018473ffffffffffffffffffffffffffffffffffffffff1673ffffffffffffffffffffffffffffffffffffffff16815260200183151515158152602001828103825286818151815260200191508051906020019080838360005b83811015610a5d578082015181840152602081019050610a42565b50505050905090810190601f168015610a8a5780820380516001836020036101000a031916815260200191505b50965050505050505060405180910390a1505050565b6002602052806000526040600020600091509050806000015490806001018054600181600116156101000203166002900480601f016020809104026020016040519081016040528092919081815260200182805460018160011615610100020316600290048015610b525780601f10610b2757610100808354040283529160200191610b52565b820191906000526020600020905b815481529060010190602001808311610b3557829003601f168201915b5050505050908060020154908060030160009054906101000a900473ffffffffffffffffffffffffffffffffffffffff16908060030160149054906101000a900460ff16905085565b600082118015610bad57506001548211155b610c1f576040517f08c379a000000000000000000000000000000000000000000000000000000000815260040180806020018281038252600e8152602001807f456e7465722076616c696420696400000000000000000000000000000000000081525060200191505060405180910390fd5b610c276116d1565b600260008481526020019081526020016000206040518060a001604052908160008201548152602001600182018054600181600116156101000203166002900480601f016020809104026020016040519081016040528092919081815260200182805460018160011615610100020316600290048015610ce85780601f10610cbd57610100808354040283529160200191610ce8565b820191906000526020600020905b815481529060010190602001808311610ccb57829003601f168201915b50505050508152602001600282015481526020016003820160009054906101000a900473ffffffffffffffffffffffffffffffffffffffff1673ffffffffffffffffffffffffffffffffffffffff1673ffffffffffffffffffffffffffffffffffffffff1681526020016003820160149054906101000a900460ff1615151515815250509050818160800190151590811515815250508060026000858152602001908152602001600020600082015181600001556020820151816001019080519060200190610db8929190611718565b506040820151816002015560608201518160030160006101000a81548173ffffffffffffffffffffffffffffffffffffffff021916908373ffffffffffffffffffffffffffffffffffffffff16021790555060808201518160030160146101000a81548160ff0219169083151502179055509050507f841aea418d155b0f7ae5a42b56e83b52b7f293bc87dc388b94e4afd955e443c283600260008681526020019081526020016000206001016002600087815260200190815260200160002060020154336002600089815260200190815260200160002060030160149054906101000a900460ff1660405180868152602001806020018581526020018473ffffffffffffffffffffffffffffffffffffffff1673ffffffffffffffffffffffffffffffffffffffff16815260200183151515158152602001828103825286818154600181600116156101000203166002900481526020019150805460018160011615610100020316600290048015610f725780601f10610f4757610100808354040283529160200191610f72565b820191906000526020600020905b815481529060010190602001808311610f5557829003601f168201915b5050965050505050505060405180910390a1505050565b60008111610fff576040517f08c379a00000000000000000000000000000000000000000000000000000000081526004018080602001828103825260138152602001807f456e74657220612076616c69642070726963650000000000000000000000000081525060200191505060405180910390fd5b60008211801561101157506001548211155b611083576040517f08c379a000000000000000000000000000000000000000000000000000000000815260040180806020018281038252600e8152602001807f456e7465722076616c696420696400000000000000000000000000000000000081525060200191505060405180910390fd5b61108b6116d1565b600260008481526020019081526020016000206040518060a001604052908160008201548152602001600182018054600181600116156101000203166002900480601f01602080910402602001604051908101604052809291908181526020018280546001816001161561010002031660029004801561114c5780601f106111215761010080835404028352916020019161114c565b820191906000526020600020905b81548152906001019060200180831161112f57829003601f168201915b50505050508152602001600282015481526020016003820160009054906101000a900473ffffffffffffffffffffffffffffffffffffffff1673ffffffffffffffffffffffffffffffffffffffff1673ffffffffffffffffffffffffffffffffffffffff1681526020016003820160149054906101000a900460ff1615151515815250509050818160400181815250508060026000858152602001908152602001600020600082015181600001556020820151816001019080519060200190611216929190611718565b506040820151816002015560608201518160030160006101000a81548173ffffffffffffffffffffffffffffffffffffffff021916908373ffffffffffffffffffffffffffffffffffffffff16021790555060808201518160030160146101000a81548160ff0219169083151502179055509050507f841aea418d155b0f7ae5a42b56e83b52b7f293bc87dc388b94e4afd955e443c283600260008681526020019081526020016000206001016002600087815260200190815260200160002060020154336002600089815260200190815260200160002060030160149054906101000a900460ff1660405180868152602001806020018581526020018473ffffffffffffffffffffffffffffffffffffffff1673ffffffffffffffffffffffffffffffffffffffff168152602001831515151581526020018281038252868181546001816001161561010002031660029004815260200191508054600181600116156101000203166002900480156113d05780601f106113a5576101008083540402835291602001916113d0565b820191906000526020600020905b8154815290600101906020018083116113b357829003601f168201915b5050965050505050505060405180910390a1505050565b60015481565b6000825111611464576040517f08c379a00000000000000000000000000000000000000000000000000000000081526004018080602001828103825260128152602001807f456e74657220612076616c6964206e616d65000000000000000000000000000081525060200191505060405180910390fd5b600081116114da576040517f08c379a00000000000000000000000000000000000000000000000000000000081526004018080602001828103825260138152602001807f456e74657220612076616c69642070726963650000000000000000000000000081525060200191505060405180910390fd5b6001600081548092919060010191905055506040518060a0016040528060015481526020018381526020018281526020013373ffffffffffffffffffffffffffffffffffffffff16815260200160001515815250600260006001548152602001908152602001600020600082015181600001556020820151816001019080519060200190611569929190611718565b506040820151816002015560608201518160030160006101000a81548173ffffffffffffffffffffffffffffffffffffffff021916908373ffffffffffffffffffffffffffffffffffffffff16021790555060808201518160030160146101000a81548160ff0219169083151502179055509050507fbc59c0c8165864dcceb377dd07d8f431d4303f8e501cb0a0374a10cc68d71836600154838333600160405180868152602001806020018581526020018473ffffffffffffffffffffffffffffffffffffffff1673ffffffffffffffffffffffffffffffffffffffff16815260200183151515158152602001828103825286818151815260200191508051906020019080838360005b8381101561168f578082015181840152602081019050611674565b50505050905090810190601f1680156116bc5780820380516001836020036101000a031916815260200191505b50965050505050505060405180910390a15050565b6040518060a00160405280600081526020016060815260200160008152602001600073ffffffffffffffffffffffffffffffffffffffff1681526020016000151581525090565b828054600181600116156101000203166002900490600052602060002090601f016020900481019282601f1061175957805160ff1916838001178555611787565b82800160010185558215611787579182015b8281111561178657825182559160200191906001019061176b565b5b5090506117949190611798565b5090565b6117ba91905b808211156117b657600081600090555060010161179e565b5090565b9056fea265627a7a7231582073f66121fc5e702d0468ecdd1999284010e3da865519d1aca81ad6c2196ef2e364736f6c63430005100032",
  "source": "pragma solidity ^0.5.0;\n\ncontract Marketplace {\n  string public name;\n  uint public productCount=0;\n  mapping(uint => Product) public products;\n  address payable ownerAdderss = 0x1606cE047B38d5b3d714Db5728E7827b9E0D5AF4;\n\nstruct Product {\n  uint id;\n  string name;\n  uint price;\n  address payable owner;\n  bool forSale;\n}\n\nevent ProductCreated (\n  uint id,\n  string name,\n  uint price,\n  address payable owner,\n  bool forSale\n);\n\nevent ProductPurchased (\n  uint id,\n  string name,\n  uint price,\n  address payable owner,\n  bool forSale\n);\n\nevent ProductUpdated (\n  uint id,\n  string name,\n  uint price,\n  address payable owner,\n  bool forSale\n);\n\n  constructor() public {\n    name = \"Dapp University Marketplace\";\n  }\n\n  function createProduct(string memory _name, uint _price) public {\n    //Require a name\n    require(bytes(_name).length > 0, \"Enter a valid name\");\n    //Requiere a valid price\n    require(_price > 0, \"Enter a valid price\");\n    //Increment product count\n    productCount++;\n    //Create the product\n    products[productCount] = Product(productCount, _name, _price, msg.sender, false);\n    //Trigger an event\n    emit ProductCreated(productCount, _name, _price, msg.sender, true);\n  }\n\n  function changePrice(uint _id, uint _price) public {\n    //Requiere a valid price\n    require(_price > 0, \"Enter a valid price\");\n    //Make sure the product has valid id\n    require(_id > 0 && _id <= productCount, \"Enter valid id\");\n    //Changes product price\n    Product memory _product = products[_id];\n    _product.price = _price;\n    products[_id] = _product;\n    //Trigger an event\n    emit ProductUpdated(_id, products[_id].name, products[_id].price, msg.sender, products[_id].forSale);\n  }\n\n  function changeForSalestate(uint _id, bool forSale) public {\n    //Make sure the product has valid id\n    require(_id > 0 && _id <= productCount, \"Enter valid id\");\n    //Changes product for sale flag\n    Product memory _product = products[_id];\n    _product.forSale = forSale;\n    products[_id] = _product;\n    //Trigger an event\n    emit ProductUpdated(_id, products[_id].name, products[_id].price, msg.sender, products[_id].forSale);\n  }\n\n  function purchaseProduct(uint _id) public payable {\n    //Fetch the product and make a copy of it\n    Product memory _product = products[_id];\n    //Fetch the owner\n    address payable _seller = _product.owner;\n    //Make sure the product has valid id\n    require(_product.id > 0 && _product.id <= productCount, \"Enter valid id\");\n    //Require that there is enough Ether in the transaction\n    require(msg.value >= _product.price,\"Transfer the correct amount\");\n    //Require that the product is for sale\n    require(_product.forSale, \"Product not for sale\");\n    //Require that the buyer is not the seller\n    require(msg.sender != _seller, \"Buyer cannot be seller\");\n    //Transfer ownership to the buyer\n    _product.owner = msg.sender;\n    //Update the product\n    products[_id] = _product;\n    //Sends 5% for platform owner\n    ownerAdderss.transfer((msg.value*5)/100);\n    //Pay the seller by sending them Ether (95% of price)\n    address(_seller).transfer((msg.value*95)/100);\n    //Trigger an event\n    emit ProductPurchased(productCount, _product.name, _product.price, msg.sender, products[_id].forSale);\n  }\n}",
  "sourcePath": "/git/puc/blockchain/tfinal/pucmg-bcsc-01/src/contracts/Marketplace.sol",
  "compiler": {
    "name": "solc",
    "version": "0.5.16+commit.9c3226ce.Emscripten.clang"
  },
  "schemaVersion": "3.4.4",
  "updatedAt": "2021-12-18T18:46:14.579Z",
  "networkType": "ethereum",
  "devdoc": {
    "methods": {}
  },
  "userdoc": {
    "methods": {}
  }
}